S00B00005337472E7372656348
S11300008052FE1F01890000CD810000118900008B
S1130010118900001189000011890000000000000E
S11300200000000000000000000000001189000032
S11300301189000000000000299A0000759B00004F
S11300408D630000FFFFFFFFFFFFFFFFFFFFFFFFC8
S1130050FFFFFFFFFFFFFFFFFFFFFFFFFFFFFFFFAC
S1130060FFFFFFFFFFFFFFFFFFFFFFFFFFFFFFFF9C
S1130070FFFFFFFFFFFFFFFFFFFFFFFFFFFFFFFF8C
S1130080FFFFFFFFFFFFFFFFFFFFFFFFFFFFFFFF7C
S1130400FFFFFFFFFFFDFFFFFFFFFFFFFFFFFFFFFA
S1130410FFFFFFFFFFFFFFFFFFFFFFFFFFFFFFFFE8
S1130420FFFFFFFFFFFFFFFFFFFFFFFFFFFFFFFFD8
S1130430FFFFFFFFFFFFFFFFFFFFFFFFFFFFFFFFC8
S1130440FFFFFFFFFFFFFFFFFFFFFFFFFFFFFFFFB8
S1130450FFFFFFFFFFFFFFFFFFFFFFFFFFFFFFFFA8
S1130460FFFFFFFFFFFFFFFFFFFFFFFFFFFFFFFF98
S1130470FFFFFFFFFFFFFFFFFFFFFFFFFFFFFFFF88
S1130480FFFFFFFFFFFFFFFFFFFFFFFFFFFFFFFF78
S1130490FFFFFFFFFFFFFFFFFFFFFFFFFFFFFFFF68
S11304A0FFFFFFFFFFFFFFFFFFFFFFFFFFFFFFFF58
S11304B0FFFFFFFFFFFFFFFFFFFFFFFFFFFFFFFF48
S11304C0FFFFFFFFFFFFFFFFFFFFFFFFFFFFFFFF38
S11304D0FFFFFFFFFFFFFFFFFFFFFFFFFFFFFFFF28
S11304E0FFFFFFFFFFFFFFFFFFFFFFFFFFFFFFFF18
S11304F0FFFFFFFFFFFFFFFFFFFFFFFFFFFFFFFF08
S11305005C08FE1FB6002B602000000020000100E4
S11305102F0000002F0001000C000100110000005A
S1130520300000003000010024000000240001001D
S11305302400020024000300240004002400050019
S11305401300000017000000230000002100000039
S1130550210001000700000007000100070002005D
S11305600700030007000400070005000700060059
S1130570070007001200000044000000080000000B
S11305800B0000004100000040000000400001009A
S113059004000000430000002B0000002B000A00B0
S11305A02B000B002B000C002B000D002B00010076
S11305B02B0002002B0003002B0004002B0005007D
S11305C02B0006002B0007002B0008002B0009005D
S11305D00600000006000A0006000B0006000C00DE
S11305E006000D0006000E0006000F0006000100C4
S11305F006000200060003000600040006000500D1
S113060006000600060007000600080006000900B0
S11306101500000015000100150002003100000063
S11306202A00000045000000100000000301000043
S113063003000000030001000F0000000D00000093
S11306402D000000420000002C0000002C000100DE
S11306502C0002002C0003003200000028000000DF
S1130660180000001400000014000100140002002F
S11306701400030014000400140005001400060014
S113068014000700140008001400090034000000DE
S113069034000100160000001600010035000000BF
S11306A03600000036000100220000003300000084
S11306B0330100002900000010B5054C237833B93C
S11306C0044B13B10448AFF300800123237010BD21
S11306D09C07FE1F00000000E4C20000084B10B598
S11306E01BB108480849AFF300800848036803B900
S11306F010BD074B002BFBD0BDE81040184700BFCE
S113070000000000E4C20000A007FE1FF406FE1F64
S11307100000000070B4840746D0541E002A41D063
S1130720CDB2034602E0621EE4B3144603F8015B53
S11307309A07F8D1032C2ED9CDB245EA05250F2C02
S113074045EA054519D903F110022646103E0F2E3D
S113075042F8105C42F80C5C42F8085C42F8045C15
S113076002F11002F2D8A4F1100222F00F0204F0F8
S11307700F041032032C13440DD91E462246043AAA
S1130780032A46F8045BFAD8221F22F0030204323B
S1130790134404F003042CB1C9B21C4403F8011B34
S11307A0A342FBD170BC704714460346C2E700BFA6
S11307B0024B13B1024800F005B870470000000076
S11307C0D1070000014600200246034600F016B897
S11307D038B5084B084DED1AAC1018BFED1805D00C
S11307E0013C55F8043D9847002CF9D1BDE8384048
S11307F00AF09ABEF006FE1FF406FE1F2DE9F0472C
S1130800254C2568D5F848410646884692469946BF
S1130810CCB360681F2818DC431C7EB104EB800550
S11308200121C5F888A0D4F8887101FA00F21743B1
S1130830022EC4F88871C5F808911ED00230636096
S113084044F820800020BDE8F087144B03B34FF434
S1130850C870AFF300800446D0B1D5F84831002702
S113086080E88800C5F8484138460123C4F88871F7
S1130870C4F88C71002EE1D0D0E7D4F88C110A436F
S1130880C4F88C21DAE705F5A674C5F84841C0E739
S11308904FF0FF30BDE8F08738B5000000000000DD
S11308A080B582B000AF786039607B68002B01D1DD
S11308B00123FAE03B68002B01D10123F5E03B68FA
S11308C01B6E002B01D10123EFE03B68DB6D002B95
S11308D001D10123E9E0774B1B881BB20D2B01DD0D
S11308E00123E2E07B683A68C3F89C217B6800221C
S11308F01A807B680122A3F8E4207B680222A3F813
S1130900E6207B680422A3F8E8203B68B3F84C3067
S1130910002B0BD03B68B3F84E30002B06D03B685D
S1130920B3F85030002B01D0012300E0002303F082
S11309300103DAB27B6883F8D8207B68002283F84D
S11309402420786800F05CFC3B6893F84030012B6D
S11309500BD17B6893F8D830002B06D07B681B88BA
S113096043F040039AB27B681A803B685B8F1BB2EA
S1130970514A82FB03121211DB17D31A9AB23B6855
S11309809A873B689B8F002B02D13B6801229A8790
S11309903B68DB8F002B03D13B6847F6BC72DA87D8
S11309A07B6803F18C023B682033104619462022F1
S11309B009F0A8FE7B684FF4FA62DA637B680522CB
S11309C01A643B681B6E9A687B68C3F8B8213B685D
S11309D01B6E5A687B68C3F8BC213B681B6E1A689F
S11309E07B68C3F8C0213B681B6E9B681B683A6830
S11309F0126E11683A68126E52680846114698479A
S1130A003B68DB6D9A687B68C3F8A4213B68DB6DA7
S1130A105A687B68C3F8A8213B68DB6D1A687B6859
S1130A20C3F8AC217B68D3F89C31B3F85630002B63
S1130A3014BF01230023DAB27B6883F8D0201F4B54
S1130A401B685A1C1D490A603A68D26D1C4941F85A
S1130A5023207B68D3F8A831164A1288002A01D1D2
S1130A60184A00E000229A63124B1B881BB20D2B1C
S1130A701ADC104B1B889BB29AB2013292B291B22B
S1130A800C4A11801BB210497A6841F823203B6854
S1130A90DB6D9B681B687A68D2F8AC117A68D2F86F
S1130AA0A821084611469847002318460837BD4632
S1130AB080BD00BFB807FE1F1F85EB510808FE1F4D
S1130AC06C08FE1FBD180000BC07FE1F80B483B075
S1130AD000AF78607B68002B01D101230EE07B68B6
S1130AE0D3F8C031002B01D1012307E07B68D3F890
S1130AF0AC31002B01D1012300E0002318460C3750
S1130B00BD465DF8047B704780B483B000AF786065
S1130B107B68002B01D1012304E0054B1A687B6834
S1130B201A60002318460C37BD465DF8047B7047F5
S1130B303CB5000080B582B000AF78607B68002BC4
S1130B4001D1012304E07868002100F031FF002383
S1130B5018460837BD4680BD80B582B000AF7860C6
S1130B6039607B68002B01D1012318E07B68D3F83E
S1130B70B831002B01D1012311E07B68D3F8B831DF
S1130B80DB687A68D2F8C0211046396898477B68D8
S1130B901B8823F008039AB27B681A800023184646
S1130BA00837BD4680BD00BF80B483B000AF786015
S1130BB00B46FB707B68D3F8AC3100229A637B68E8
S1130BC0D3F89C31FA7883F840207B68D3F89C31C1
S1130BD05A6C7B68C3F8D4207B681B8823F080039D
S1130BE09AB27B681A807B681B8843F040039AB2F0
S1130BF07B681A80002318460C37BD465DF8047BD9
S1130C00704700BF80B582B000AF78600B46FB70C0
S1130C107B68002B01D1012305E0FB787868194635
S1130C2000F0C6FE002318460837BD4680BD00BF4D
S1130C3080B584B000AF78600B4B5B68DB697A6881
S1130C40D2F89C21B2F84A1007F10F020846114667
S1130C509847FB7B002B0CBF01230023DBB2184613
S1130C601037BD4680BD00BFF0BB000080B582B028
S1130C7000AF78600B46FB707B68002B01D1012329
S1130C8055E0FB78002B3CD07B68D3F8A4315B683B
S1130C907A68D2F8AC117A68D2F8BC215268084656
S1130CA0114698477868FFF7C3FF0346002B0AD024
S1130CB0214B5B681B6A7A68D2F89C21B2F8482001
S1130CC01046002198477B6800229A831A4B5B6880
S1130CD01B6A7A68D2F89C21B2F848201046012198
S1130CE098477B681A8841F6FF1313409AB27B68D1
S1130CF01A807B681B8843F004039AB27B681A80CD
S1130D0014E07B681B8823F006039AB27B681A8080
S1130D10094B5B681B6A7A68D2F89C21B2F84820B8
S1130D20104600219847786800F058F800231846C8
S1130D300837BD4680BD00BFF0BB000080B483B05F
S1130D4000AF78607B681B8803F00203002B37D167
S1130D507B68002283F824207B680022A3F8982172
S1130D607B685A687B689A637B685A687B681A67F1
S1130D707B68D3F8AC3100229A657B68D3F8AC3138
S1130D8000225A657B6800225A617B68D3F8AC3133
S1130D907A68D2F8AC21B2F88820A3F88C207B685A
S1130DA0D3F8AC317A68D2F8AC21B2F88A20A3F82F
S1130DB08E207B681B8843F003039AB27B681A80F9
S1130DC07B681A8841F6FF1313409AB27B681A8035
S1130DD00C37BD465DF8047B704700BF80B483B018
S1130DE000AF78607B68002283F824207B680022AF
S1130DF0A3F898217B6800221A617B6800225A615B
S1130E007B6800229A617B68D3F8AC317A68B2F8C7
S1130E10BC20A3F840207B68D3F8AC310022A3F8AF
S1130E2042207B681B8843F001039AB27B681A80D6
S1130E307B681B8823F481739AB27B681A807B6871
S1130E4093F85230052B06D17B68D3F89C311A787D
S1130E507B6883F852200C37BD465DF8047B7047ED
S1130E6080B582B000AF78600B46FB707B68002BC6
S1130E7001D1012324E07B681B8803F00403002BC9
S1130E8003D178680121FFF7F1FEFB78002B13D022
S1130E907B68D3F8AC311B78032B10D07B68D3F874
S1130EA0AC311B78042B0AD07868FFF747FF7868C9
S1130EB0012100F07DFD02E07868FFF78FFF002339
S1130EC018460837BD4680BD80B582B000AF786053
S1130ED07B6893F82430002B00D14BE07B68B3F897
S1130EE09831072B00D945E07B6893F88A30002BB2
S1130EF002D0052B0DD03DE07B68D3F890217B68B0
S1130F00D3F88C31786811461A46002300F090FF1C
S1130F100CE07B68D3F890217B68D3F88C31786837
S1130F2011461A46012300F083FF00BF7B68D3F803
S1130F308C217B68C3F890217B68D3F88C3103F152
S1130F4014027B68C3F88C217B68D3F88C217B68FE
S1130F5003F5C6739A4205D17B6803F1EC027B6802
S1130F60C3F88C217B68B3F8983101339AB27B685B
S1130F70A3F898210837BD4680BD00BF80B485B072
S1130F8000AF786039603B68B3F5004F03DB47F688
S1130F90FF733B6005E03B6813F5004F01DC484BF1
S1130FA03B607B681B693A68D21A7B689A617B68EC
S1130FB03A681A617B685A693B681A447B685A61CB
S1130FC07B685A697B68D3F8B4309A4205DD7B6844
S1130FD0D3F8B4207B685A610DE07B685A697B685A
S1130FE0D3F8B4305B429A4205DA7B68D3F8B43064
S1130FF05A427B685A617B685B697A68B2F8AE20B2
S113100012B202FB03F31B12FB607B689B697A68D4
S1131010B2F8B02012B202FB03F3FA681344FB6087
S11310207B68B3F8AC301BB23A6802FB03F3FA688E
S11310301344FB607B68B3F8B8301BB27A68526F14
S1131040121202FB03F31B12FA681344FB607B6861
S1131050B3F8BA301BB27A68926F121202FB03F330
S11310601B12FA681344FB607B68B3F8BC301BB2F4
S1131070FA681344FB607B68B3F8CA301AB2FB68A1
S11310809A4205DA7B68B3F8CA301BB2FB600DE004
S11310907B68B3F8CA301BB25A42FB689A4205DD3A
S11310A07B68B3F8CA301BB25B42FB60FB689BB23F
S11310B01BB218461437BD465DF8047B704700BF69
S11310C00180FFFF90B583B000AF78607B68B3F810
S11310D0CE309BB29BB2013B9BB29AB27B68A3F821
S11310E0CE207B68B3F8CE301BB2002B00DD84E049
S11310F07B68B3F8CC207B68A3F8CE207B685A6861
S11311007B689B68D21A7B68DA607B685A687B6864
S11311109A607B6893F82430002B4DD07B68B3F839
S11311209831002B43D07B68D3F894311A7C7B68C8
S113113083F824207B68D3F894311A687B681A6793
S11311407B68D3F894315A687B685A677B68D3F814
S113115094319A687B689A677B68D3F8943103F179
S113116014027B68C3F894217B68D3F894217B68CC
S113117003F5C6739A4205D17B6803F1EC027B68E0
S1131180C3F894217B68B3F89831013B9AB27B6829
S1131190A3F898217B6893F82430002B0CD17B684A
S11311A01B8843F001039AB27B681A8004E07B68D1
S11311B09B6A5A1C7B689A627B681B8803F0020353
S11311C0002B11D07B68D3F8AC417B681A6F7B6825
S11311D0D3F8C0311B69D31A78681946FFF7CEFEDD
S11311E00346A4F8403008E07B6800221A617B685B
S11311F0D3F8C0311A697B681A670C37BD4690BDB5
S113120080B584B000AF78600023FB817B68B3F8BD
S1131210DA207B68A3F8DC202E4B5B68DB697A68F4
S1131220D2F89C21B2F84C1007F10D020846114681
S11312309847284B5B68DB697A68D2F89C21B2F83E
S11312404E1007F10C02084611469847214B5B6883
S1131250DB697A68D2F89C21B2F8501007F10B02CE
S11312600846114698477B7B012B05D17B68B3F870
S1131270E420FB891343FB813B7B012B05D17B6875
S1131280B3F8E620FB891343FB81FB7A012B05D1DC
S11312907B68B3F8E820FB891343FB817B68FA89F8
S11312A0A3F8DA207B68B3F8DC207B68B3F8DA3083
S11312B09A4204D07B685A687B68C3F8E0207B6854
S11312C0D3F8AC317A68B2F8DA201A811037BD4607
S11312D080BD00BFF0BB000080B582B000AF786075
S11312E07868FFF7A5FC0346002B28D07B681B8891
S11312F003F40053002B22D17B689B8B9BB20133F8
S11313009BB29AB27B689A837B689B8B1BB2042B3B
S113131014DD7868FFF762FD7B681B8843F4005393
S11313209AB27B681A807B681B8823F004039AB204
S11313307B681A807B6800229A8303E002E07B6862
S113134000229A837B681A887B685A800837BD46D6
S113135080BD00BF2DE9B04384B000AF78607B68E6
S1131360D3F89C3193F84030002B00F0DE80012B41
S113137000D032E17B6893F8D830002B00F0D480A1
S11313800023FB607B68B3F8DC207B68B3F8DA30B9
S11313909A4209D07B68B3F8DA30002B04D07B681A
S11313A0B3F8DA30072B00D117E17B68B3F8DC30EF
S11313B0013B052B00F2108101A252F823F000BF7B
S11313C069140000D91300008F14000021140000D8
S11313D045140000FD1300007B68B3F8DA30062BD7
S11313E002D13C23FB6008E07B68B3F8DA30032BBE
S11313F002D10023FB6000E0EFE05BE07B68B3F820
S1131400DA30042B02D17823FB6008E07B68B3F860
S1131410DA30022B02D13C23FB6000E0DDE049E03E
S11314207B68B3F8DA30052B02D1B423FB6008E003
S11314307B68B3F8DA30062B02D17823FB6000E036
S1131440CBE037E07B68B3F8DA30012B02D1F0232C
S1131450FB6008E07B68B3F8DA30042B02D1B423D4
S1131460FB6000E0B9E025E07B68B3F8DA30032BD9
S113147003D14FF49673FB6008E07B68B3F8DA306D
S1131480052B02D1F023FB6000E0A6E012E07B68AC
S1131490B3F8DA30022B02D10023FB6009E07B6849
S11314A0B3F8DA30012B03D14FF49673FB6000E0FC
S11314B093E000BF7B68D3F8AC417B685D68FB6850
S11314C01E3B184608F02EFE804689467B68D3F8FA
S11314D0AC315B69184608F025FE02460B464046CF
S11314E0494608F085FE02460B46104619464FF061
S11314F000023C4B08F0A6FF02460B461046194674
S113150009F088F80346EB1A63627B681B8823F0B2
S113151040039AB27B681A807B681B8843F080037F
S11315209AB27B681A8058E057E07B68D3F8D430CD
S1131530002B00D151E07B68D3F8D4207B68D3F82A
S11315409C315B6C9A4213D17B68D3F8AC317A68D6
S1131550D2F89C21B2F84220A3F840207B68D3F84B
S1131560AC3100229A637B68D3F8AC3103221A7041
S11315707B68D3F8D4305A1E7B68C3F8D4207B68C8
S1131580D3F8D430002B00DD27E07B68D3F8AC31EE
S11315907A6852685A627B685A687B681A677B6803
S11315A01B8823F040039AB27B681A807B681B88EF
S11315B043F080039AB27B681A807B68D3F8AC311D
S11315C00022A3F840207B68D3F8AC317A68D2F8C3
S11315D0A821127C1A7000E000BF1037BD46BDE898
S11315E0B08300BF0080764080B487B000AF7860DD
S11315F07B68B3F8C8311BB2012B40F08A807B684A
S1131600B3F8D6311BB2072B04DC7B68D3F8E43182
S11316101B6803E07B68D3F8E4311B883B617B687B
S1131620B3F8CA311BB2033B072B00F2428101A27B
S113163052F823F055160000B3180000B318000048
S1131640B3180000911600000F170000DB1600000D
S1131650F51600007B681B8803F00203002B0AD0F8
S11316607B681B8803F00103002B10D17B680322E5
S1131670A3F8C8214CE07B68D3F8AC31B3F8403010
S1131680002B04D07B680322A3F8C82140E03FE08C
S11316907B681B8803F00203002B0AD07B681B883D
S11316A003F00103002B17D17B680222A3F8C821A1
S11316B02EE07B68D3F8AC31B3F84030002B06D170
S11316C07B68D3F8AC31B3F84230002B04D07B688C
S11316D00222A3F8C8211BE01AE07B68B3F8D031DA
S11316E01AB23B699A4204DA7B680222A3F8C82141
S11316F00EE00DE07B68B3F8D0311AB23B699A4230
S113170004DD7B680222A3F8C82101E000E000BFE9
S1131710CFE07B68B3F8C8311BB2012B40F3C9801A
S11317207B6803F58F5310331B685A1E7B6803F5DF
S11317308F5310331A607B6803F58F5310331B6883
S11317409BB21BB2002B00F3B4807B6803F58F536C
S11317500C331B88F4335B007A6813440433FB6056
S11317607B68B3F8CC311AB27B6803F58F5310331E
S11317701A607B68D3F8DC311A88FB681A807B68AE
S1131780B3F8D2311BB2072B0DDCFB6803F5806381
S11317907A68D2F8DC2152881A807B68D3F8DC316D
S11317A01B687B6104E07B68D3F8DC311B887B61B8
S11317B0FB6803F500637A68D2F8E02112881A8086
S11317C0FB6803F540637A68D2F8E42112881A8032
S11317D07B68B3F8CE31B3F5007F07D27B68B3F8EA
S11317E0CE3101339AB27B68A3F8CE217B68B3F87B
S11317F0C8311BB2022B0AD17B68B3F8CE31B3F5E2
S1131800007F3CD37B680022A3F8C82137E07B68C3
S1131810B3F8CA311BB2033B032B30D801A252F8F0
S113182023F000BF351800007F1800004B1800009B
S1131830651800007B6893F82430002B04D17B6882
S11318400022A3F8C8211AE019E07B68B3F8D0316C
S11318501AB27B699A4204DA7B680022A3F8C82191
S11318600DE00CE07B68B3F8D0311AB27B699A4280
S113187004DD7B680022A3F8C821FFE700BF7B6872
S113188003F58F530C331B8801339AB27B6803F53D
S11318908F530C331A807B6803F58F530C331B88EA
S11318A0B3F5007F05D37B6803F58F530C33002217
S11318B01A801C37BD465DF8047B704780B582B042
S11318C000AF0023FB80374B5B681B6A40F20720A4
S11318D00121984755E0B7F90630334A52F82330CE
S11318E03B603868FFF7F8FC3B68D3F8B8315B68B5
S11318F03A68D2F8C021104698473B68D3F8C03103
S11319001A693B685A603B68D3F8AC313A6852684C
S11319105A603B68D3F8C0315B7A83F00103DBB2D1
S1131920002B06D03B681B8843F008039AB23B683F
S11319301A803B6893F8D830002B02D03868FFF740
S11319405FFC3868FFF7C0FA3868FFF7BBFB3B68F9
S11319501B8803F04003002B02D03868FFF7FAFC21
S11319603B68D3F8A4319B683A68D2F8AC2110469E
S113197098473868FFF738FEFB889BB201339BB267
S1131980FB800A4B1B88B7F906201BB29A42A2DBE4
S1131990044B5B681B6A40F2072000219847083714
S11319A0BD4680BDF0BB0000BC07FE1FB807FE1F8C
S11319B080B584B000AF78600B46FB707B685B6BCE
S11319C0002B0BD07B685A6B7B68D3F8C0311B6942
S11319D01A447B689A637B6800225A637B6803F12C
S11319E054027B683833104619461C2208F08AFEDC
S11319F07B681B6E002B03D17B68DA6D7B681A66EB
S1131A007B68D3F89430B3F5000F03DB7B68754A29
S1131A10C3F894207B6803F1AC027B688C331046D6
S1131A201946202208F06EFE7B680222A3F8CC201F
S1131A307B68B3F8C830002B05D07B68B3F8C820A6
S1131A407B68A3F8CC20FB78002B61D17B6893F8EA
S1131A502430002B36D17B6893F852207B6883F8BE
S1131A608A207B6893F88A30002B02D0052B0AD099
S1131A7013E07868002100F069F903461A467B6890
S1131A8083F8242009E07868012100F05FF9034617
S1131A901A467B6883F8242000BF7B6893F82430BF
S1131AA0002B07D07B681B8823F001039AB27B6864
S1131AB01A8094E07B681B8843F001039AB27B6828
S1131AC01A808CE07B6893F85230052B05D07B6834
S1131AD093F85230002B40F082807B6893F85220B8
S1131AE07B6883F88A207B68B3F888207B681A8631
S1131AF07B680122A3F898217B68D3F894311B7C7E
S1131B00002B6CD17B68D3F8943102221A7466E0FE
S1131B107B6893F82430002B06D17B68D3F8C0315E
S1131B201A697B685A6556E07B68D3F89431DB68A0
S1131B30FB607B6893F86E30002B28D07B68002212
S1131B4083F86E207B68002283F852207B68D3F8E8
S1131B5094315B6807EE903AB8EEE77A7B68D3F885
S1131B6094315B6807EE903AF8EEE77A27EE277A2D
S1131B707B681B6E5B0007EE903AF8EEE77AC7EEDF
S1131B80277AFDEEE77A17EE903A1B14FB60FB7898
S1131B90012B07D1FB685B11FB607B681B6E5A014C
S1131BA07B681A667B685A6D7B68D3F8C0311B6901
S1131BB09A4208DD7B68D3F8C0311A69FB681A447D
S1131BC07B685A6507E07B68D3F8C0311A69FB6803
S1131BD0D21A7B685A657B685A6D7B689A631037A2
S1131BE0BD4680BDFFFF7F0080B483B000AF786046
S1131BF039603B68152B78D801A252F823F000BF56
S1131C00591C00005F1C0000651C00006B1C0000D8
S1131C10EB1C0000EB1C0000EB1C0000EB1C0000A4
S1131C206F1C0000751C00007F1C0000891C000054
S1131C30931C00009D1C0000A71C0000B11C0000A8
S1131C40BB1C0000C51C0000C91C0000D31C000004
S1131C50DD1C0000E11C00007B68043347E07B6866
S1131C60743344E07B68783341E000233FE07B68D1
S1131C7010333CE07B68D3F8AC31403337E07B6809
S1131C80D3F8AC31A03332E07B68D3F8AC316033A5
S1131C902DE07B68D3F8AC31623328E07B68D3F85D
S1131CA0AC315E3323E07B68D3F8AC315C331EE0A7
S1131CB07B68D3F8AC31883319E07B68D3F8AC3156
S1131CC08A3314E0002312E07B68D3F8AC31643328
S1131CD00DE07B68D3F8AC31663308E0074B06E0CF
S1131CE07B68D3F8AC312C3301E07B6810331846A1
S1131CF00C37BD465DF8047B704700BF6808FE1FC3
S1131D0080B584B000AFF860B9607A607B68002B5E
S1131D1016DB7B68032B13DCF868B968FFF764FFF4
S1131D200146FA687B6876339B0013445960BB68AC
S1131D3099B2FA687B68E8335B0013440A465A8018
S1131D40002318461037BD4680BD00BF80B582B061
S1131D5000AF78600B46FB707B6803F1EC027B6894
S1131D60C3F890217B68D3F890317A68126F1A60B7
S1131D707B68D3F8903100225A607B68D3F89031A5
S1131D8000229A607B68D3F890310022DA607B6885
S1131D90D3F8903100221A747B68D3F8903103F1A0
S1131DA014027B68C3F88C217B68D3F88C217B6890
S1131DB0C3F894217B680022DA62FB78002B05D0FB
S1131DC07B68B3F86C207B681A860DE07B685A6DDB
S1131DD07B68D3F890311B689A4201DB012201E051
S1131DE04FF6FF727B681A867B68D3F890117B6884
S1131DF0D3F88C21FB78786800F01AF87B68D3F864
S1131E008C217B68C3F890217B68D3F88C3103F173
S1131E1014027B68C3F88C217B680122A3F8982103
S1131E207B68D3F890311B7C18460837BD4680BDCB
S1131E3080B489B000AFF860B9607A60FB70FB7859
S1131E40002B1ED0FB68B3F86C30BB826FF00043EC
S1131E50FB61FB689B6D002B42D1BB685A68FB6831
S1131E601B6E9A423CDA7B6800225A607B6800222F
S1131E709A60BB681A687B681A607B6800221A74CF
S1131E80DEE0FB685A6DBB681B68D31AFB61FB6913
S1131E90002B06DA4FF6FF73BB82FB695B42FB61E2
S1131EA001E00123BB82FB681B6E1B14FB82B7F9A4
S1131EB01630002B01DC0123FB82B7F91620FB69E5
S1131EC09A420DDB7B6800225A607B6800229A608C
S1131ED0FB685A6D7B681A607B6800221A74AFE055
S1131EE0BB68DA68FB699A420CDABB685A68FB681B
S1131EF09B6D9A4206DCFB681B8EB7F914201BB25B
S1131F009A4236D0BB685A68FB681B6ED31ABB6111
S1131F10FB681A6EBB699A4212DDFB68BA8A1A869C
S1131F20FB689A6DFB681B6E9A4204DAFB689A6D33
S1131F307B685A6007E0FB681A6E7B685A6002E0AF
S1131F407B68BA695A60BB685A68FB689B6D9A42A1
S1131F5007DDFB689A6DBB699A42B8BF1A467B6875
S1131F605A60FB681A6E7B689A607B6802221A7456
S1131F7025E0BB685A68FB689B6D9A4215DABB681A
S1131F805A68FB68DB6D1344BB61FB689A6DBB69DF
S1131F909A42A8BF1A467B685A60FB68DA6D7B6870
S1131FA09A607B6801221A7409E0BB685A687B68EE
S1131FB05A607B6800229A607B6803221A747B68EB
S1131FC05B6807EE903AB8EEE77A7B685B6807EEE9
S1131FD0903AF8EEE77A27EE277AFB681B6E5B00EF
S1131FE007EE903AF8EEE77AC7EE277AFDEEE77A45
S1131FF017EE903A1A147B68DA60FB68DA6ABB68F9
S113200059687B685B680B445B101A44FB68DA62AE
S1132010FB68DB6A1B14BB61FB681B8E1BB2002BC5
S113202002DABB695B42BB61BB681A68BB691A44CC
S11320307B681A60FB68DB6A9AB2FB68DA6200BFED
S11320402437BD465DF8047B704700BF80B483B07D
S113205000AF78600B467B807B881B0A9BB2DBB2A7
S11320605A017B68134418460C37BD465DF8047B5F
S1132070704700BF80B483B000AF78600B467B80AC
S11320807B881B0A9BB2DBB21A017B88DBB2134448
S11320909A007B68134418460C37BD465DF8047BF0
S11320A0704700BF80B485B000AF78600B46FB700A
S11320B01346BB70BB78012B10D17B681B78FB7374
S11320C0FB78DB43DAB2FB7B1340FB73FB7B03F04F
S11320D03003FB737B68FA7B1A7010E0BB78002B2B
S11320E00DD17B681B78FB73FA7BFB781343FB737E
S11320F0FB7B03F03003FB737B68FA7B1A701437A5
S1132100BD465DF8047B704780B586B000AFF860CB
S1132110B96011461A460B46FB8013467B71FB8857
S1132120F868194600F07CF978617B79012B04D1B9
S11321307B6943F001037B6103E07B6923F00103C6
S11321407B617A69064B13407B61FB88F868B96848
S11321501A467B6900F076F91837BD4680BD00BF8A
S1132160D5FC011F80B586B000AFF8600846114663
S11321701A4603467B810B463B811346FB80FB6872
S113218003F108027B8910461946FFF75FFF786167
S1132190FB881A043B891A437B691A601837BD46C9
S11321A080BD00BF80B586B000AF78600B467B80F1
S11321B07B681A1D7B8810461946FFF747FF786134
S11321C07B691B683B613B691B0C3B613B699BB2B0
S11321D03B613B69FB81FB8918461837BD4680BDCE
S11321E080B586B000AFF860084611461A4603462B
S11321F07B810B463B811346FB80FB6803F108029D
S11322007B8910461946FFF721FF78617B69043307
S11322107B61FB881A043B891A437B691A6018376F
S1132220BD4680BD80B584B000AF78600B467B802E
S11322307B887868194600F0F3F8F860FB6803F0CF
S11322400203002B01D0012300E0002318461037BD
S1132250BD4680BD80B586B000AF78600B467B80FC
S11322607B681A1D7B8810461946FFF7EFFE7861DC
S11322707B691B683B613B699BB23B613B69FB81AA
S1132280FB8918461837BD4680BD00BF80B584B0B1
S113229000AF78600B467B807A687B8810461946CD
S11322A0FFF7D4FEF860FB681B68BB60BB689BB299
S11322B0BB60BB689BB218461037BD4680BD00BFEB
S11322C080B586B000AFF860B96011461A460B4677
S11322D0FB8013467B71FB88F868194600F0A0F870
S11322E078617B79002B04D17B6923F004037B6143
S11322F003E07B6943F004037B617A69064B134076
S11323007B61FB88F868B9681A467B6900F09AF823
S11323101837BD4680BD00BFD5FC011F80B584B011
S113232000AF78600B467B8013463B807A687B88DD
S113233010461946FFF78AFEF860FB681B68BB600D
S1132340BB681B0C1B04BB603B88BA681343BB60AF
S1132350FB68BA681A601037BD4680BD80B487B088
S113236000AF786000237B61EFF310833B613B692E
S11323707B610123FB60FB6883F310880D4B1B8892
S11323809BB2002B05D17B680022DA707B68402267
S1132390DA70084B1B889BB201339AB2054B1A8042
S11323A07B69BB60BB6883F310881C37BD465DF84E
S11323B0047B7047F407FE1F80B487B000AF7860D9
S11323C000237B61EFF310833B613B697B61012355
S11323D0FB60FB6883F31088104B1B889BB2002BB7
S11323E006D00E4B1B889BB2013B9AB20B4B1A8052
S11323F00A4B1B889BB2002B05D17B680022DA7044
S11324007B688022DA707B69BB60BB6883F31088C9
S11324101C37BD465DF8047B704700BFF407FE1F00
S113242080B584B000AF78600B467B807B88786889
S11324301946FFF71FFEF860FB681B681846103743
S1132440BD4680BD80B588B000AFF860B9603B6020
S11324501346FB80FB88F8681946FFF70BFEF8610A
S1132460B868FFF77BFFFB691B68BB613B6803F43B
S11324708033002B0FD0BB697B617B6923F48033ED
S11324807B61FB697A691A603B6823F480337B6162
S1132490FB697A691A60FB693A681A60B868FFF7E1
S11324A08BFF2037BD4680BD80B588B000AF786013
S11324B07B68002B01D101234EE07B685B68002B15
S11324C001D1012348E00023FB6107F10C03002242
S11324D01A60043300221A60043300221A600433A1
S11324E000221A6004330023FB8300237B77092333
S11324F03B771B4BDB6807F11C0107F10C02084614
S113250011469847FB68174A1360BB69164A136063
S11325103B8A1A46154B1A600A233B77104BDB683B
S113252007F11C0107F10C02084611469847FB68A5
S11325300F4A136001237B77094BDB6807F11C0109
S113254007F10C02084611469847FB68094A1360D4
S1132550786800F011F8034618462037BD4680BD60
S113256038B600006407FE1F7007FE1F7407FE1FC5
S11325706807FE1F6C07FE1F90B585B000AF78603A
S11325807B68002B01D1012329E07B685B68002B69
S113259001D1012323E0786800F006FB7B68BB606F
S11325A00023FB8115E0104B1868104B1968BB68B9
S11325B05A68FB89DB0013449C88BB685A68FB8912
S11325C0DB0013441B682246FFF73CFFFB89013301
S11325D0FB81BB681B88FA899A42E4D3002318461E
S11325E01437BD4690BD00BF6807FE1F6C07FE1F71
S11325F080B588B000AF03463960FB800023FB61DF
S1132600FB88184600F088FAF861FB69002B01D0BA
S1132610FB6919E0FB883B823B68FB600123BB82BA
S113262007F10C03BB6107F11403184600F0BCFA70
S1132630074B1968074B1A68FB88084611461A4667
S11326403B68FFF7FFFE002318462037BD4680BDD8
S11326506807FE1F6C07FE1F80B584B000AF0346F9
S11326603960FB800023FB60FB88184600F054FAB5
S1132670F860FB68002B01D0FB6810E03B68002B7E
S113268001D101230BE0084B1A68FB881046194658
S1132690FFF7C8FD03461A463B681A700023184624
S11326A01037BD4680BD00BF6807FE1F80B584B0EB
S11326B000AF03463960FB800023FB60FB881846AB
S11326C000F058FAF860FB68002B01D0FB6810E0BA
S11326D03B68002B01D101230BE0084B1A68FB88EF
S11326E010461946FFF7B6FD03461A463B681A80A2
S11326F0002318461037BD4680BD00BF6407FE1F87
S113270080B584B000AF0346FB800B46BB80134604
S11327107B807B88002B01D103231EE00023FB6018
S1132720FB88184600F026FAF860FB68002B01D0FD
S1132730FB6812E0BA887B8813407B81BB88DB434B
S11327409AB27B8813409BB23B81064B1868F98888
S11327507A893B89FFF706FD002318461037BD46EA
S113276080BD00BF6407FE1F80B584B000AF034680
S11327700A46FB8013467B717B79012B01D9032325
S113278014E00023FB60FB88184600F0C5F9F860EC
S1132790FB68002B01D0FB6808E0064B1868064B69
S11327A01968FA887B79FFF7AFFC002318461037C5
S11327B0BD4680BD6807FE1F6C07FE1F80B586B04E
S11327C000AF0346FB800B46BB8013467B807B88AF
S11327D0002B01D1032335E000237B61FB881846DD
S11327E000F0C8F978617B69002B01D07B6929E08E
S11327F0164B1A68FB8810461946FFF747FD034637
S11328007B82BA887B8813403B82BB88DB439AB2C5
S11328107B8813409BB2FB817B8ABB81BA893B8A4C
S11328201343BB81FB89DB439AB2BB891340BB8151
S1132830064B1968FA88BB89084611461A46FFF701
S11328406DFD002318461837BD4680BD6407FE1F82
S113285080B584B000AF03460A46FB8013467B7103
S11328607B79002B04D07B79012B01D0032314E066
S11328700023FB60FB88184600F04EF9F860FB6803
S1132880002B01D0FB6808E0064B1868064B19685A
S1132890FA887B79FFF714FD002318461037BD46EC
S11328A080BD00BF6807FE1F6C07FE1F80B584B0A3
S11328B000AF03463960FB800023FB60FB881846A9
S11328C000F058F9F860FB68002B01D0FB6810E0B9
S11328D03B68002B01D101230BE0084B1A68FB88ED
S11328E010461946FFF75EFC03461A463B681A80F9
S11328F0002318461037BD4680BD00BF6407FE1F85
S113290080B586B000AF03463960FB8000237B614D
S1132910FB88184600F000F978617B69002B01D030
S11329207B692AE03B68002B01D1012325E0FB8869
S11329307B827B8A23F0FF037B827B8A3B82114B61
S11329401A683B8A10461946FFF72CFC0346FB81A4
S1132950FB88DBB2012202FA03F3BB81FA89BB894B
S113296013409BB2BA899A4203D13B6801221A7080
S113297002E03B6800221A70002318461837BD464F
S113298080BD00BF6407FE1F80B584B000AF03465E
S1132990FB800B46BB8013467B800023FB60FB88D7
S11329A0184600F0E7F8F860FB68002B01D0FB68DC
S11329B017E07B88002B01D1032312E0BA887B88BF
S11329C013407B81BB88DB439AB27B8813409BB264
S11329D03B81064B1868F9887A893B89FFF700FC2C
S11329E0002318461037BD4680BD00BF6407FE1F94
S11329F080B586B000AF03460A46FB8013467B7160
S1132A0000233B61FB88184600F086F838613B6977
S1132A10002B01D03B692BE07B79012B04D07B791F
S1132A20002B01D0032323E0FB88FB81FB8923F0E7
S1132A30FF03FB81FB89BB810023FB820023BB8254
S1132A407B79012B06D1FB88DBB2012202FA03F366
S1132A50FB8205E0FB88DBB2012202FA03F3BB82AE
S1132A60054B1868B989FA8ABB8AFFF7B9FB0023BA
S1132A7018461837BD4680BD6407FE1F80B483B076
S1132A8000AF78607B68002B01D101230CE07B68E8
S1132A9004221A707B6801225A707B6802229A70A1
S1132AA07B680122DA70002318460C37BD465DF8B6
S1132AB0047B704780B584B000AF03460A46FB71BF
S1132AC01346BB7100233B7307F10C03184605F052
S1132AD005FB3B7B03F00103DBB2002B01D1062392
S1132AE013E0FB79202B01D903230EE0BB79012BE2
S1132AF001D9032309E0074B1968FA79BB79084621
S1132B0011461A46FFF7CEFA002318461037BD4681
S1132B1080BD00BF6C07FE1F80B487B000AF0346C2
S1132B20FB80FB881B0A9BB27B61FB88DBB23B61A9
S1132B300E4B1B687A699A4211D23B6910331A46CC
S1132B4001239340FB600A4B1A687B699B00134482
S1132B501A68FB681340002B01D0002300E0032314
S1132B6018461C37BD465DF8047B70477407FE1F8A
S1132B707007FE1F80B485B000AF0346FB80FB885E
S1132B801B0A9BB2FB60074B1B68FA689A4201D28E
S1132B90002300E0032318461437BD465DF8047B88
S1132BA0704700BF7407FE1F80B588B000AF78601F
S1132BB00023FB750023BB750023FB6139E0002370
S1132BC0BB6130E07B685A68FB69DB0013449A8878
S1132BD02849BB6931F813309A4221D17B685A687D
S1132BE0FB69DB0013441B6803F0F8533B613B694A
S1132BF0B3F1807F03D03B69B3F1106F08D1BB6997
S1132C00012202FA03F3DAB2FB7D1343FB7507E0FA
S1132C10BB69012202FA03F3DAB2BB7D1343BB752D
S1132C20BB690133BB61BB69022BCBD9FB6901339F
S1132C30FB617B681B881A46FB699A42BFD8012056
S1132C4005F002FE0C4B93F8BB34FB73FA7BFB7D5F
S1132C501343FB73BB7DDB43DAB2FB7B1340FB7393
S1132C60054AFB7B82F8BB34012005F09FFD203729
S1132C70BD4680BDA4B5000000E0014080B483B02F
S1132C8000AF78600B46FB70FB787A689B001344B6
S1132C905B689B007A68134418460C37BD465DF8A0
S1132CA0047B704780B58CB000AF0346B9607A608E
S1132CB0FB733E4B18460121FFF7E0FF38623B6A85
S1132CC09B78FA7B9A4201D300236BE03B6A5A68F3
S1132CD07B681A60FB7B1B09DBB202339B003A6AF8
S1132CE01344FB61FB7B03F00F03FB62FB691B884E
S1132CF07B857A8DFB6A22FA03F303F00103002B30
S1132D0001D100234EE0FB699B787B62FB6A072BB1
S1132D100FD9FB6A03F00703FB627B8D1B0A7B85DB
S1132D20FB69DB78C3F30303DBB21A467B6A134403
S1132D307B621F4AFB6A13441B781A467B8D13403F
S1132D401C4AD35C1A467B6A13447B623B6A9B78B9
S1132D501B09DBB202339B003A6A1344BB6113497B
S1132D607B6A5B00BA6913441B88C3F309039BB2F3
S1132D709B000B447B617B6A5B00BA6913445B78FC
S1132D8023F07F03DBB2002B03D1BB68FF221A7050
S1132D9007E07B691B78C3F34603DBB21A46BB68C2
S1132DA01A707B6918463037BD4680BD60B7000095
S1132DB02CB60000ACB5000080B487B000AFF8605A
S1132DC07A603B600B46FB7200237B6147E02D4B2E
S1132DD01A687B69DB0013449A79FB681B789A4272
S1132DE03AD1284B1A687B69DB0013445B79C3F33F
S1132DF08503DBB21A46FB685B889A422CD1214BCF
S1132E001A687B69DB001344DB79C3F30303DBB289
S1132E101A46FB685B789A421ED11A4B1A687B6982
S1132E20DB001344DB79C3F30313DBB21A46FB7AEA
S1132E309A4211D17B69DAB27B681A70114B1A6815
S1132E407B69DB0013449B88C3F309039BB21A46D6
S1132E503B681A8000230EE07B6901337B610A4BD7
S1132E601B687A699A42B2D37B68DF221A703B6886
S1132E70FF221A800B2318461C37BD465DF8047BDD
S1132E80704700BFB8BB00004008FE1F80B582B089
S1132E9000AF1B4B184600F0A7F978607B68002B45
S1132EA000D000BE7B68002B01D07B6823E0154B6B
S1132EB000221A60144B1B681B0C9BB2B3F5807F75
S1132EC018D1114B1B68184600F06CF978607B68C8
S1132ED0002B0FD10C4B1B680A4A136000F0F8F862
S1132EE078607B68002B00D000BE7B68002B01D08B
S1132EF07B6800E0002318460837BD4680BD00BF4C
S1132F0060B700007807FE1F9CB17F4080B584B095
S1132F1000AF78607B68002B01D1012311E00B4BDB
S1132F20FB600B4B1B68002B02D0094B1B68FB603A
S1132F30F8680021FFF7A2FEB8607B68BA681A60DF
S1132F40002318461037BD4680BD00BF60B700009F
S1132F507807FE1F80B487B000AF78607B68002BD1
S1132F6001D1012326E0164B1B68002B01D11C2341
S1132F7020E0134B1A68124B1B685B689B001344D8
S1132F80BB60BB6804337B617B683B610023FB60EF
S1132F900CE07B691A683B691A603B6904333B6146
S1132FA07B6904337B61FB680133FB60FB68032BA3
S1132FB0EFD9002318461C37BD465DF8047B7047E3
S1132FC07807FE1F90B589B002AF786039607B68DE
S1132FD0002B01D101233CE03B68002B01D10123EC
S1132FE037E064237B61FF23FB740023BB607B68B1
S1132FF0197807F1130207F10803084611461A4627
S1133000FFF750FE0346FB60FB68002B02D14FF430
S1133010AF631EE007F1130207F10C037868114651
S11330201A4600F067F978617B69002B01D07B694F
S11330300FE0B968FA7CFC683B6800937868234623
S113304000F024FA78617B69002B01D07B6900E0F1
S1133050002318461C37BD4690BD00BF80B586B01E
S113306000AFF8600B467A60FB72FB68002B01D15D
S1133070012312E07B68002B01D101230DE07A6863
S11330807B680233F97AF868FFF796FE78617B690A
S1133090002B01D07B6900E0002318461837BD4699
S11330A080BD00BF80B483B000AF78607B68002B24
S11330B001D1012304E0054B1A687B681A600023E0
S11330C018460C37BD465DF8047B704734B60000E3
S11330D080B487B000AF314B1B683B613B695B68D0
S11330E09B003A691344FB602D4A2D4B5B689B009F
S11330F01344BB6000237B6146E07B694FF47E424E
S113310022FA03F303F00103002B3AD07B69C3F1E5
S11331100F037B607B69072B0DD1FA687B6813442E
S113312010331A79B9687B680B4410331B799A42BF
S113313027D21D232CE07B69082B14D1FA687B6805
S1133140134410331B79372B1BD0BA687B681344A4
S113315010331A79F9687B680B4410331B799A424F
S11331600FD01D2314E0BA687B68134410331A7916
S1133170F9687B680B4410331B799A4201D01D23F4
S113318006E07B6901337B617B690F2BB5D9002392
S113319018461C37BD465DF8047B70479CB17F40E0
S11331A060B7000080B483B000AF78607B681B68B0
S11331B0002B01D11D230FE07B681B68B3F1FF3F97
S11331C001D11D2308E07B6824331B68054A934220
S11331D001D01D2300E0002318460C37BD465DF8DE
S11331E0047B70475237465380B485B000AF786093
S11331F00023FB607B681B68002B01D11D2316E0B4
S11332000023BB600AE0BB689B007A6813441B6818
S1133210FA681344FB60BB680133BB60BB68FF2BD7
S1133220F1D9FB68002B01D01D2300E000231846D0
S11332301437BD465DF8047B704700BF80B487B087
S113324000AF78600B46FB7000237B6100233B6179
S11332500023FB60FB78052B42D801A252F823F02F
S1133260793200007F32000091320000B332000056
S1133270C3320000C932000003237B6131E07B6864
S11332801B793B613B6903339B0803337B6128E073
S11332907B681B793B617B689B78FB603B690333EC
S11332A09A083B69F96801FB03F3134403337B6118
S11332B017E07B689B78FB60FB689B0001337B61B4
S11332C00FE002237B610CE07B689B78BB60BB68EA
S11332D003339A08BB685B00134401337B6100E04D
S11332E000BF7B699B0018461C37BD465DF8047B14
S11332F0704700BF80B586B000AFF860B9607A60EF
S11333007B681B687B61FB685B78002B2CD0BB68F7
S11333101B78FF2B02D140F2795329E0FB685B78DC
S11333203B611EE03B69013B3B617B691B7803F019
S11333300103DBB2002B02D140F2795318E0BB68E1
S11333401B7878691946FFF779FF02467B691344B5
S11333507B617B691B78C3F34603DBB21A46BB6807
S11333601A703B69002BDDD17B687A691A600023EF
S113337018461837BD4680BD80B485B000AFF860EC
S11333807A603B600B46FB727B68DB78C3F3031304
S1133390DBB21A463B685A727B68DB78C3F30303DB
S11333A0DBB21A463B689A727B681B799AB23B6817
S11333B09A80FB685A883B689B889A4202D340F201
S11333C07A535DE07B689B68FA68528811467A6894
S11333D0D28802FB01F213441A463B681A60FB7A56
S11333E0012B14D0022B22D07B685B789AB27B68C5
S11333F09B781B029BB213439BB29AB23B68DA8060
S11334003B6800221A723B680022DA6030E0FB68F5
S11334105B881A467B6813441B7B9AB23B68DA804C
S11334203B6800221A723B680022DA6020E0FB68E5
S11334305B881A467B6813441B7B9AB23B68DA802C
S11334407B689A783B681A723B689B8803339B08B5
S1133450FA68528811463A68127A02FB01F2134460
S113346002339B007A6813441A1D3B68DA6000BF7C
S11334703B68DB88002B02D140F27A5300E0002342
S113348018461437BD465DF8047B704780B586B096
S113349000AFF860B9603B601346FB7164237B6145
S11334A0FB79032B76D0032B03DC002BC0F299802D
S11334B037E0042B3ED0FF2B40F093803B68DB7851
S11334C0C3F30313DBB21A463B6A5A723B68DB78D8
S11334D0C3F30303DBB21A463B6A9A723B6A0122C6
S11334E09A80FB685A883B6A9B889A4202D340F2CE
S11334F07A537EE03B681B881B021A46BB68134460
S11335001A463B6A1A603B689B789AB23B6ADA8037
S11335103B6A00221A723B6A0022DA6000237B6154
S113352061E0FB79F86819463A683B6AFFF724FFC3
S1133530786158E03B68DB78C3F30313DBB21A46C7
S11335403B6A5A723B68DB78C3F30303DBB21A4667
S11335503B6A9A723B685B789AB23B6ADA803B6A50
S113356000229A803B6A00221A723B6A0022DA60C7
S11335703B685B681A463B6A1A603B6ADB8803F067
S11335800203002B02D000237B612CE040F279532C
S11335907B6128E03B68DB78C3F30313DBB21A4694
S11335A03B6A5A723B68DB78C3F30303DBB21A4607
S11335B03B6A9A723B685B789AB23B6ADA803B68F2
S11335C09B789AB23B6A9A803B6A04221A723B6ADD
S11335D000221A603B681A1D3B6ADA6000237B6193
S11335E001E064237B617B69002B01D07B6900E0EF
S11335F0002318461837BD4680BD00BF80B483B091
S113360000AF78600B46FB70FB7803F00103DAB27D
S11336107B6802F00102D96A21F001010A43DA62EF
S11336200C37BD465DF8047B704700BF80B485B09D
S113363000AF78607B68DB6AFB60FB684FF425426F
S11336401A60FB6800221A61FB6800225A61FB6859
S113365000229A61FB684FF4D242DA61FB684FF4AE
S113366016421A62FB6800225A62FB6800229A62C0
S1133670FB680122DA62FB6801221A63FB680022FC
S11336805A63FB6800229A63FB680022DA63FB68D2
S113369000221A64FB6800229A64FB684FF0FF3230
S11336A0DA64FB684FF0FF321A65FB684FF0FF32B3
S11336B05A65FB684FF0FF329A65FB684FF0FF32A2
S11336C05A66FB684FF0FF329A66FB680022C3F823
S11336D08820FB684FF0FF32C3F88C201437BD46B6
S11336E05DF8047B704700BF80B58AB000AFF86016
S11336F0B9607A6007F1140300221A6004330022CF
S11337001A60043300221A60043300221A6004335E
S113371000237B62BB681B789AB27B685A800A4B91
S1133720DB6807F1140278681146984778627B6A6F
S1133730002B01D07B6A03E07A69FB68DA6200231C
S113374018462837BD4680BD38B6000080B586B01F
S113375000AF786039607B68002B01D101235AE007
S11337603B681A787B681A707B683A689A627B684F
S11337700022DA617B6800221A727B6800229A8434
S11337807B689A8C7B681A847B6800225A617B6808
S11337905A697B681A610023BB603B681B789BB243
S11337A07B8100237B722B233B7207F1080378682B
S11337B039681A46FFF798FF78617B69002B01D0BE
S11337C07B6928E007F10803184604F065FF3861B7
S11337D03B69002B01D008231DE07B68DB6AFB609A
S11337E007F10803184604F0E5FD7868FFF71EFFAB
S11337F03B68DB687868194600F056F8084B9A680D
S113380022F480429A60F8680121FFF7F7FE7B6892
S113381001221A63002318461837BD4680BD00BF35
S11338200070044080B483B000AF78607B68002BE4
S113383001D1012331E07B68DB6A002B01D1012334
S11338402BE07B68DB6A9B6C1A467B68DA607B68DA
S1133850DA687B68DB691A447B681A617B68DB6A17
S1133860DB6B03F00103DBB2002B15D07B685B7AC2
S1133870002B11D07B68DB6ADB6C1A467B68DB6942
S11338801A447B689A617B6800225A727B68DB6AFF
S1133890DA6B22F00102DA63002318460C37BD46C6
S11338A05DF8047B704700BF80B483B000AF7860DC
S11338B039607B68002B01D1012319E07B68DB6A46
S11338C0002B01D1012313E03B68002B06D07B6859
S11338D0DB6A3A685A627B683A685A607B680122FC
S11338E05A727B68DB6ADA6B22F00102DA63002326
S11338F018460C37BD465DF8047B704780B483B02E
S113390000AF786039607B68002B01D101230CE0A3
S11339107B68DB6A002B01D1012306E07B68DB684E
S11339203A68D21A7B68DA61002318460C37BD4620
S11339305DF8047B704700BFB0B483B000AF78601B
S113394039607B68002B01D1012310E03B68002B18
S113395001D101230BE03A687B68154603F10804A2
S11339600FCC0FC594E80F0085E80F00002318461C
S11339700C37BD46B0BC704780B483B000AF7860EC
S11339807B68002B01D1012300E0002318460C378B
S1133990BD465DF8047B704780B483B000AF7860A7
S11339A07B68002B01D1012303E07B6801221A60AC
S11339B0002318460C37BD465DF8047B704700BFF2
S11339C080B483B000AF78607B6800229A707B6813
S11339D040229A707B6841229A700C37BD465DF88C
S11339E0047B704780B483B000AF78607B680022AA
S11339F01A717B6840221A717B6841221A710C3754
S1133A00BD465DF8047B704780B483B000AF786036
S1133A107B681A7862F07F021A700C37BD465DF835
S1133A20047B704780B483B000AF78607B681A78F9
S1133A3002F07F021A700C37BD465DF8047B7047B4
S1133A4080B485B000AFF860B9601346FB80FB68B2
S1133A50BA680432F98823F822101437BD465DF899
S1133A60047B704780B483B000AF786039607B68B2
S1133A703A680432002123F822100C37BD465DF861
S1133A80047B704780B58AB000AF78607B68002BF8
S1133A9001D101234EE00023FB610023FB830023BB
S1133AA07B770B233B7707F10C0300221A60043366
S1133AB000221A60043300221A60043300221A60C0
S1133AC004331E4BDB6807F11C0107F10C020846A6
S1133AD01146984738623B6A002B01D03B6A29E0C3
S1133AE0FB68174A136007F11C03184604F062FCD4
S1133AF000237B6212E07B689A687B6A9B00134414
S1133B0019787B689A687B6A9B0013445B88084633
S1133B10194600F037F87B6A01337B627B685A6888
S1133B207B6A9A42E7D87B681B78002B01D000F0AF
S1133B3055F8002318462837BD4680BD38B6000026
S1133B40F807FE1F80B582B000AF0346FB71FB7916
S1133B50002B02D0012B06D00BE0094B1B68184642
S1133B60FFF72EFF07E0064B1B681846FFF73AFFE6
S1133B7001E0012300E0002318460837BD4680BD5C
S1133B80F807FE1F80B582B000AF03460A46FB71FA
S1133B901346BB80064B1968FA79BB880846114660
S1133BA01A46FFF74DFF002318460837BD4680BD6F
S1133BB0F807FE1F80B582B000AF0346FB71064BC9
S1133BC01A68FB7910461946FFF74CFF0023184684
S1133BD00837BD4680BD00BFF807FE1F80B500AFA3
S1133BE0034B1B681846FFF70FFF0023184680BDE0
S1133BF0F807FE1F80B500AF034B1B681846FFF79C
S1133C0011FF0023184680BDF807FE1F80B483B05F
S1133C1000AF78607B68002B01D1012304E0054BE1
S1133C201A687B681A60002318460C37BD465DF895
S1133C30047B70476CB6000080B483B000AF0346C9
S1133C403960FB7197F90730002B0BDA0D49FB79CA
S1133C5003F00F03043B3A68D2B21201D2B20B4410
S1133C601A7609E0084997F907303A68D2B2120186
S1133C70D2B20B4483F800230C37BD465DF8047BB5
S1133C80704700BF00ED00E000E100E080B483B0C5
S1133C9000AF0346FB7197F90730002B0ADA0D4A8F
S1133CA0FB7903F00F03043B13441B7EDBB21B09B7
S1133CB0DBB208E0084A97F90730134493F800335D
S1133CC0DBB21B09DBB218460C37BD465DF8047B3A
S1133CD0704700BF00ED00E000E100E080B582B075
S1133CE000AF78607B68013BB3F1807F01D301238F
S1133CF00FE00A4A7B68013B53604FF0FF300F210D
S1133D00FFF79AFF054B00229A60044B07221A60C2
S1133D10002318460837BD4680BD00BF10E000E010
S1133D2080B400AF0D4B1B689B690D4A13600C4BAC
S1133D300C4A5A600A4B4FF400429A60074B1B68C6
S1133D40DB69074AD360064B4FF400421A61044B07
S1133D5000225A61BD465DF8047B70479407FE1F3C
S1133D607C07FE1F00127A0080B52DED028B84B013
S1133D7000AF7860284B1B6893F8283003F03003B9
S1133D80DBB2002B42D00023BB60786800F0FCFB60
S1133D900346BB60BB68002B38D00023FB601E4B7E
S1133DA01B6893F8283003F03003DBB2102B08D1E2
S1133DB0786800F0B9FA03461A46184B53F82230D3
S1133DC0FB60154B1B6893F8283003F03003DBB21B
S1133DD0202B02D1114BDB68FB60FB6807EE903AA5
S1133DE0B8EE677ABB6807EE903AF8EE677A87EE2A
S1133DF0278A786800F02EFBF0EE407A68EE277A86
S1133E00FCEEE77A17EE902A044B5A611037BD4650
S1133E10BDEC028B80BD00BF9407FE1F7C07FE1F14
S1133E2080B500AF002004F0C1FC80BD80B500AFB8
S1133E30002004F009FD80BD80B500AF012004F02E
S1133E40B5FC80BD80B500AF012004F0FDFC80BD51
S1133E5080B584B000AF78600B46FB70144B1B68D0
S1133E6093F82030FB73124B1B6893F82130BB731B
S1133E70FFF7DCFF7B6893F81334DBB2DAB2FB7B29
S1133E80DB43DBB21340D9B2FA78BB7B02FA03F30B
S1133E90DAB2FB7B1340DBB20A461343DBB2DAB27D
S1133EA07B6883F81324FFF7BBFF1037BD4680BD42
S1133EB09407FE1F80B584B000AF78600B46FB709A
S1133EC0144B1B6893F82230FB73124B1B6893F856
S1133ED02330BB73FFF7AAFF7B6893F88134DBB20E
S1133EE0DAB2FB7BDB43DBB21340D9B2FA78BB7B9B
S1133EF002FA03F3DAB2FB7B1340DBB20A46134344
S1133F00DBB2DAB27B6883F88124FFF789FF1037CC
S1133F10BD4680BD9407FE1F80B582B000AF7860B7
S1133F200B46FB70FFF782FFFB78052B3ED801A2FE
S1133F3052F823F04D3F00005D3F00006D3F00004C
S1133F407D3F00008D3F00009D3F00007B6893F89B
S1133F50362022F0010283F8362028E07B6893F8AB
S1133F60382022F0010283F8382020E07B6893F89F
S1133F70902422F0010283F8902418E07B6893F8DF
S1133F80322022F0010283F8322010E07B6893F89B
S1133F90802422F0010283F8802408E07B6893F8EF
S1133FA02A2022F0010283F82A2000E000BFFFF754
S1133FB037FF0837BD4680BD80B582B000AF78605A
S1133FC00B46FB70FFF732FFFB78052B3ED801A2AE
S1133FD052F823F0ED3F0000FD3F00000D400000CB
S1133FE01D4000002D4000003D4000007B6893F818
S1133FF0362042F0010283F8362028E07B6893F8EB
S1134000382042F0010283F8382020E07B6893F8DE
S1134010902442F0010283F8902418E07B6893F81E
S1134020322042F0010283F8322010E07B6893F8DA
S1134030802442F0010283F8802408E07B6893F82E
S11340402A2042F0010283F82A2000E000BFFFF793
S1134050E7FE0837BD4680BD80B483B000AF78600A
S11340600B46FB70FB78032B0FD0052B1AD0002BCB
S113407000D024E07B6893F83C3003F00103DBB20A
S1134080002B01D001231BE019E07B6893F83C303E
S1134090DBB2DB0803F00103DBB2002B01D0012308
S11340A00EE00CE07B6893F83C30DBB25B0903F074
S11340B00103DBB2002B01D0012301E000BF002388
S11340C018460C37BD465DF8047B704780B483B056
S11340D000AF78600B46FB70FB78052B50D801A22B
S11340E052F823F0FD400000134100002941000074
S11340F03F410000554100006B4100007B6893F88C
S1134100363003F00103DBB2002B01D101233AE086
S113411038E07B6893F8383003F00103DBB2002BFE
S113412001D101232FE02DE07B6893F8903403F054
S11341300103DBB2002B01D1012324E022E07B68E0
S113414093F8323003F00103DBB2002B01D10123D9
S113415019E017E07B6893F8803403F00103DBB2C5
S1134160002B01D101230EE00CE07B6893F82A3088
S113417003F00103DBB2002B01D1012303E001E0D2
S1134180002300E0002318460C37BD465DF8047B8D
S1134190704700BF80B586B000AF78600B46FB70F7
S11341A013463B807868062100F0B4FB3861FB7845
S11341B00C4A52F82330FB60FB68002B0ED03A699E
S11341C0FB68B2FBF3F33A8802FB03F37B6102E082
S11341D07B69013B7B617B69002BF9D11837BD46B4
S11341E080BD00BF7C07FE1F80B582B000AF786041
S11341F00B46FB70FFF71AFEFB7803F00103DAB2FB
S11342007B6802F00102900193F8132422F040022B
S1134210114602460A4383F81324FFF701FE0837C8
S1134220BD4680BD80B582B000AF78600B46FB70A0
S11342301346BB70FFF7FAFDBB7803F00F03DAB245
S11342407B6802F00F0093F8A22022F00F021146BF
S113425002460A4383F8A220FFF7E2FD0837BD4671
S113426080BD00BF80B483B000AF0346FB710D4B2B
S11342701B6893F8283003F03003DBB2002B04D121
S1134280FB79042B06D9002305E0FB79052B01D922
S1134290002300E0012318460C37BD465DF8047B7B
S11342A0704700BF9407FE1F80B483B000AF03467D
S11342B0FB71FB79062B01D9002300E0012318468A
S11342C00C37BD465DF8047B704700BF80B483B0F3
S11342D000AF78607B6893F8263003F00703DBB205
S11342E018460C37BD465DF8047B704780B582B034
S11342F000AF78600B46FB70FFF798FDFB7803F086
S11343000703DAB27B6802F0070093F8262022F054
S11343100702114602460A4383F82620FFF780FD70
S11343200837BD4680BD00BF80B483B000AF78605D
S11343300D4B1B6893F8283003F04003DBB2002BCD
S11343400AD07B681B8D9BB21B0903F00103DBB20F
S1134350012B01D1002300E0032318460C37BD468E
S11343605DF8047B704700BF9407FE1F80B582B0E0
S113437000AF78600B46FB70FFF758FDFB78032B0A
S113438005D17B681A8D22F010021A8504E07B683F
S11343901A8D42F010021A85FFF742FD0837BD4618
S11343A080BD00BF80B584B000AF786087ED000A9F
S11343B0274B1B6893F8283003F03003DBB2102B33
S11343C01DD1D7ED007A77EEA77AFCEEE77A17EEE7
S11343D0903A013BFB60FFF729FDFB68DBB203F079
S11343E03F03DAB27B6802F03F0210021A8D22F416
S11343F07C52114602460A431A85FFF711FD144BFD
S11344001B6893F8283003F03003DBB2202B1CD157
S1134410D7ED007AFCEEE77A17EE903A013BBB60E9
S1134420FFF704FDBB68DBB203F01F03DAB27B685D
S113443002F01F0093F82B2022F01F0211460246BF
S11344400A4383F82B20FFF7EBFC1037BD4680BDF1
S11344509407FE1F80B485B000AF78604FF000036E
S1134460FB601F4B1B6893F8283003F03003DBB26A
S1134470102B11D17B681B8D9BB21B0A03F03F03E9
S1134480DBB2013307EE903AF8EE677AB0EE007AC9
S1134490C7EE877AC7ED037A114B1B6893F828306F
S11344A003F03003DBB2202B0FD17B6893F82B3061
S11344B003F01F03DBB207EE903AF8EE677AB7EE2B
S11344C0007A77EE877AC7ED037AFB6807EE903AB5
S11344D0B0EE670A1437BD465DF8047B704700BF31
S11344E09407FE1F80B584B000AF78600B46FB7064
S11344F0224B1B6893F8283003F03003DBB2102BF7
S113450017D1FB781E4A32F81330FB81FFF78EFC7B
S1134510FB89DBB203F00303DAB27B6802F0030029
S11345201A8D22F00302114602460A431A85FFF748
S113453077FC124B1B6893F8283003F03003DBB28E
S1134540202B18D1FB780F4A32F81330BB81FFF7C8
S11345506DFCBB89DBB203F00303DAB27B68900124
S113456093F82B2002F03F02114602460A4383F8D7
S11345702B20FFF755FC1037BD4680BD9407FE1F66
S113458094B60000A4B6000080B485B000AF786093
S11345900123FB81164B1B6893F8283003F030038A
S11345A0DBB2102B09D17B681B8D03F00303DBB254
S11345B01A46104B33F81230FB810D4B1B6893F8ED
S11345C0283003F03003DBB2202B0AD17B6893F848
S11345D02B30DBB29B09DBB21A46074B33F812309F
S11345E0FB81FB8918461437BD465DF8047B704790
S11345F09407FE1F8CB600009CB6000080B584B002
S113460000AF786039600023FB604D4B1B6893F862
S1134610293003F00803DBB2002B0CD03B681B7875
S113462003F00703DBB203F007031B03FA6822F469
S1134630E0421343FB60424B1B6893F8293003F0BC
S11346401003DBB2002B0CD03B685B7803F007034C
S1134650DBB203F007031B02FA6822F4E06213439F
S1134660FB60374B1B6893F8293003F02003DBB25F
S1134670002B0CD03B689B7803F00703DBB203F0FC
S113468007031B01FA6822F070021343FB602C4BF2
S11346901B6893F8293003F04003DBB2002B0BD0E6
S11346A03B68DB7803F00703DBB203F00703FA6827
S11346B022F007021343FB60214B1B6893F82A3056
S11346C003F00103DBB2002B0CD03B681B7903F031
S11346D00703DBB203F007031B04FA6822F4E022A9
S11346E01343FB60164B1B6893F8293023F07F03B8
S11346F0DBB2002B0CD03B685B7903F00703DBB221
S113470003F007031B07FA6822F0E0421343FB603F
S11347103B689B7903F00703DBB203F007031B0636
S1134720FA6822F0E0621343FB60FFF77FFBFA684C
S11347307B681A62FFF774FB1037BD4680BD00BF6B
S11347409407FE1F80B483B000AF786039607B6843
S11347501B6A1B0B03F00703DBB21A463B681A7093
S11347607B681B6A1B0A03F00703DBB21A463B682B
S11347705A707B681B6A1B0903F00703DBB21A46F5
S11347803B689A707B681B6A03F00703DBB21A4626
S11347903B68DA707B681B6A1B0C03F00703DBB20F
S11347A01A463B681A717B681B6A1B0F03F00703E8
S11347B0DBB21A463B685A717B681B6A1B0E03F016
S11347C00703DBB21A463B689A710C37BD465DF8A5
S11347D0047B704780B483B000AF78601E4B1B68C5
S11347E093F824207B685B789A4201D200232CE062
S11347F0194B1B6893F8263007EE903AB8EE677AA7
S11348007B68D3ED017AB4EEE77AF1EE10FA0FD4B7
S1134810114B1B6893F8253007EE903AB8EE677A8F
S11348207B68D3ED017AB4EEE77AF1EE10FA01DD9C
S113483000230AE07B681B78032B05D07B681B7878
S1134840002B01D0002300E0012318460C37BD469D
S11348505DF8047B704700BF9407FE1F80B485B0E9
S113486000AF78600B46FB700023FB60FB78062BDF
S113487047D801A252F823F095480000A54800004B
S1134880B5480000C5480000D3480000E3480000D4
S1134890F34800007B681B6A1B0B03F00703DBB2C1
S11348A0FB602FE07B681B6A1B0A03F00703DBB283
S11348B0FB6027E07B681B6A1B0903F00703DBB27C
S11348C0FB601FE07B681B6A03F00703DBB2FB603D
S11348D018E07B681B6A1B0C03F00703DBB2FB6068
S11348E010E07B681B6A1B0F03F00703DBB2FB605D
S11348F008E07B681B6A1B0E03F00703DBB2FB6056
S113490000E000BFFB6818461437BD465DF8047B21
S1134910704700BF80B584B000AF78600B46FB7071
S1134920FB7878681946FFF799FFF8607868FFF715
S1134930CDFC03461A46054B53F82220FB6822FAA5
S113494003F318461037BD4680BD00BF7C07FE1F29
S113495080B483B000AF03460A46FB711346BB71B3
S1134960FB79064A52F82320BB7922FA03F318464E
S11349700C37BD465DF8047B704700BF7C07FE1F03
S113498080B584B000AF78600B46FB70FFF75AFA2D
S11349900023FB7307F10F03184603F0C1F900BFAE
S11349A07B6893F8AA30DBB21B0903F00103DBB286
S11349B0002BF5D17B6893F8A030DBB21B0903F020
S11349C00103DBB2002BEBD17B6893F8AA2022F021
S11349D0010283F8AA2000BF7B6893F8AA30DBB2F7
S11349E01B0903F00103DBB2002BF5D17B6893F8BC
S11349F0A030DBB21B0903F00103DBB2002BEBD1C7
S1134A00FB78042B07D17B6893F8A02042F00302C3
S1134A1083F8A0200FE0FB7803F00303DAB27B688D
S1134A2002F0030093F8A02022F00302114602468C
S1134A300A4383F8A02000BF7B6893F8AA30DBB256
S1134A401B0903F00103DBB2002BF5D17B6893F85B
S1134A50A030DBB21B0903F00103DBB2002BEBD166
S1134A60FB78042B07D17B6893F8AA2042F001025B
S1134A7083F8AA2006E07B6893F8AA2022F00102BA
S1134A8083F8AA2000BF7B6893F8AA30DBB21B0925
S1134A9003F00103DBB2002BF5D17B6893F8A0305F
S1134AA0DBB21B0903F00103DBB2002BEBD1FB7B70
S1134AB0184603F05DF9FFF7BFF91037BD4680BD16
S1134AC080B485B000AF78600023FB737B6893F8F3
S1134AD0AA3003F00103DBB2012B02D10423FB73E0
S1134AE006E07B6893F8A03003F00303DBB2FB73AA
S1134AF0FB7B18461437BD465DF8047B704700BF46
S1134B0080B582B000AF7860FFF790F97B6893F8C6
S1134B10402062F07F0283F840207B6893F84020B5
S1134B2042F0010283F84020FFF77AF90837BD46C6
S1134B3080BD00BF80B582B000AF7860FFF776F922
S1134B407B6893F8402022F0010283F840207B68C0
S1134B5093F8402002F07F0283F84020FFF760F9C9
S1134B600837BD4680BD00BF80B483B000AF786015
S1134B707B6893F84030DBB2DB09DBB2012B01D157
S1134B80012300E0002318460C37BD465DF8047B82
S1134B90704700BF80B483B000AF78607B6893F83F
S1134BA0413003F00103DBB2012B01D1012300E00A
S1134BB0002318460C37BD465DF8047B704700BFE0
S1134BC080B582B000AF78607B6893F8413003F021
S1134BD00103DBB2012B0CD1FFF728F97B6893F8B2
S1134BE0412022F0010283F84120FFF719F9012343
S1134BF000E0002318460837BD4680BD80B582B06A
S1134C0000AF78600B46FB70FFF710F9FB7803F0F8
S1134C100103DAB27B6802F0010093F8302022F03D
S1134C200102114602460A4383F83020FFF7F8F8E0
S1134C300837BD4680BD00BF80B582B000AF786044
S1134C40FFF7F4F87B6893F8522042F0010283F8EE
S1134C505220FFF7E5F80837BD4680BD80B582B025
S1134C6000AF7860FFF7E2F87B6893F8522022F0F7
S1134C70010283F85220FFF7D3F80837BD4680BD00
S1134C8080B582B000AF78600B46FB701346BB70F2
S1134C90FFF7CCF87B6893F83E2002F07F0283F89C
S1134CA03E20BB7803F00703DAB27B6802F0070208
S1134CB0100193F83E2022F07002114602460A4386
S1134CC083F83E20FB7803F00703DAB27B6802F036
S1134CD0070093F83E2022F00702114602460A43D9
S1134CE083F83E20FFF79CF80837BD4680BD00BF1F
S1134CF080B582B000AF7860FFF798F87B6893F8CE
S1134D003E2062F07F0283F83E20FFF789F80837DF
S1134D10BD4680BD80B582B000AF7860FFF786F8ED
S1134D207B6893F83E2002F07F0283F83E20FFF771
S1134D3077F80837BD4680BD80B582B000AF786093
S1134D40FFF774F87B6893F8532042F0010283F86C
S1134D505320FFF765F80837BD4680BD80B582B0A3
S1134D6000AF7860FFF762F87B6893F8532022F075
S1134D70010283F85320FFF753F80837BD4680BD7E
S1134D8080B582B000AF78600B46FB70FFF74EF839
S1134D90FB7803F00703DAB27B6802F00702100124
S1134DA093F8242022F07002114602460A4383F845
S1134DB02420FFF735F80837BD4680BD80B586B09E
S1134DC000AF78600023FB75144B1B683B61134BE9
S1134DD01B6803F00203002B01D1012319E00F4BE0
S1134DE000221A604FF0FF30FEF750FFF860786839
S1134DF0FEF774FF0346002B07D10123FB754FF028
S1134E00FF30F968FEF718FF02E0044A3B691360BB
S1134E10FB7D18461837BD4680BD00BF10E000E09A
S1134E2080B483B000AF78600B46FB70FB7803F06E
S1134E300F03DAB27B6802F00F0093F8502022F0DF
S1134E400F02114602460A4383F850200C37BD4630
S1134E505DF8047B704700BF80B483B000AF786016
S1134E607B6893F8503003F00F03DBB218460C371D
S1134E70BD465DF8047B704780B483B000AF7860B2
S1134E807B6893F8502062F07F0283F850200C373F
S1134E90BD465DF8047B704780B483B000AF786092
S1134EA07B6893F8502002F07F0283F850200C377F
S1134EB0BD465DF8047B704780B483B000AF786072
S1134EC07B6893F85030DBB2DB09DBB2012B01D1F4
S1134ED0012300E0002318460C37BD465DF8047B2F
S1134EE0704700BF80B582B000AF78600B46FB709E
S1134EF0FEF79CFFFB7803F00703DAB27B6802F04D
S1134F00070093F8A52022F00702114602460A433F
S1134F1083F8A520FEF784FF0837BD4680BD00BF97
S1134F2080B582B000AF786078680021FFF728FD73
S1134F300837BD4680BD00BF80B582B000AF786041
S1134F4078680121FFF71CFD0837BD4680BD00BF0E
S1134F5080B582B000AF786078680321FFF710FD58
S1134F600837BD4680BD00BF80B582B000AF786011
S1134F7078680421FFF704FD0837BD4680BD00BFF3
S1134F8080B586B000AF404803F0BCF800237B61D5
S1134F903B1D00221A60043300221A6004330022ED
S1134FA01A60043300221A6004330023FB820023B6
S1134FB07B7503233B75354BDB6807F114013A1D00
S1134FC00846114698477B68314A13604FF6FF73D1
S1134FD03B602F4B1B6818460021FFF777F8034608
S1134FE0002B18D002E03B68013B3B60284B1B6858
S1134FF018460021FFF730F8034683F00103DBB2C3
S1135000002B02D03B68002BEDD13B68002B02D172
S11350104FF4CD7334E01E4B1B6818460621FFF78E
S113502061FF4FF6FF733B60FEF77AFE184B1B6877
S113503018460421FEF7C0FF02E03B68013B3B60D9
S1135040134B1B6818460421FFF740F80346002B56
S113505002D03B68002BF0D13B68002B02D14FF407
S1135060CD730DE00A4B1B68184604210522FFF797
S113507091F8074B1B6818460021FEF71BFF00231D
S113508018461837BD4680BD9407FE1F38B6000089
S11350909807FE1F80B58CB000AF78607B68002B4A
S11350A001D1012325E100237B627B681B7887F80B
S11350B023307B680433FB6100233B7400237B743F
S11350C00023BB740023FB7400233B7500237B7512
S11350D00023BB750023FB73884B07F10F0107F115
S11350E010020846114698477B685B7D3B727B68DB
S11350F0DB7CBB727B681B7D7B727B68DB7DFB7218
S11351007B689B7D3B737B681B7E7B7397F82330A6
S11351101846FFF7A7F80346002B01D10323E8E064
S11351207B681B7807F13002134413F8283C012BE9
S113513001D10323DDE07B7B022B14D1FB691B78B7
S11351401846FFF78FF80346002B01D10323D0E064
S1135150FB691B7807F13002134413F8283C012B38
S113516001D10323C5E00623FB62654B1B6893F85A
S1135170283003F03003DBB2002B01D10523FB629E
S11351800023BB624FE0BB6ADBB2052B32D107F1CF
S11351900802BB6A13441B78022B2BD1594AFB69C2
S11351A01B7818460021904778627B6A002B06D052
S11351B07B6A40F29112934201D07B6A99E0FB69C9
S11351C01B78184601F04AF878627B6A002B01D0FC
S11351D07B6A8EE04B4B0520F969984778627B6ABD
S11351E0002B06D07B6A40F29112934201D07B6A75
S11351F07FE015E007F10802BB6A13441A78BB6A22
S1135200DBB21046194601F05DF878627B6A002B28
S113521006D07B6A40F29112934201D07B6A68E027
S1135220BB6A0133BB62BA6AFB6A9A42ABD397F892
S11352302330184601F012F878627B6A002B01D003
S11352407B6A56E0304A7B680C3397F82310084693
S11352501946904778627B6A002B01D07B6A48E04C
S1135260FB7BFB7697F82320FB7E9A4240D0FB7EA3
S113527007F13002134413F8283C012B10D1FB7EB4
S113528007F13002134413F8282CFB7E104619460C
S113529001F018F878627B6A002B01D07B6A28E061
S11352A01A4B1B681846FFF73FF80346BB76BB7ED4
S11352B007F13002134413F8283C012B18D1FB7E6C
S11352C0052B15D197F82320BB7E9A4210D0BB7EC4
S11352D007F13002134413F8282CBB7E10461946FC
S11352E000F0F0FF78627B6A002B01D07B6A00E05B
S11352F0002318463037BD4680BD00BF495A000020
S11353009407FE1F11530000E95600009807FE1F82
S113531080B586B000AF03463960FB71FB7918464F
S1135320FEF7A0FF0346002B01D1032336E1FB79EE
S1135330052B1AD19B4B1A68FB7910461946FEF7C8
S1135340C5FE0346FB75FB7D002B04D0954B1B6803
S11353501846FEF709FDFB7D83F00103DBB2002B49
S113536002D140F2911319E10FE08E4B1A68FB79D8
S113537010461946FEF7AAFE034683F00103DBB28A
S1135380002B02D140F2911308E1FB79052B17D1D0
S11353903B68002B01D1012300E1824B1B681846B6
S11353A0FEF794FF0346052B02D140F29113F5E07A
S11353B03868FFF70FFA0346002B17D10323EDE0FB
S11353C0FB79002B08D0FB79012B05D0FB79032B4B
S11353D002D0FB79052B09D1724B1B681846FFF7E5
S11353E06FFB0346042B01D10523D7E0FB79022B85
S11353F005D0FB79012B02D0FB79042B26D1694B14
S11354001A68FB7910461946FEF786FDFB79042BD2
S11354101BD14FF6FF73FB6002E0FB68013BFB60AE
S1135420604B1B6818460421FEF750FE034683F0C8
S11354300103DBB2002B02D0FB68002BEDD1FB682B
S1135440002B02D14FF4CD73A8E0A6E0FB79002B2A
S113545002D0FB79032B31D1524B1A68FB791046E9
S11354601946FEF7F9FD034683F00103DBB2002B76
S113547002D140F2931391E0FB79032B16D1494BEF
S11354801A68494B1B6893F8273010461946FEF7F3
S1135490DFFC444B1B6818460021FEF7A5FE414B78
S11354A01B68184603210922FEF7BCFE3D4B1A680F
S11354B0FB7910461946FEF72FFD6EE0FB79052BAC
S11354C06BD1384B1A683B681B7810461946FEF7B7
S11354D0FDFD0346002B02D14FF4CA735EE0314B4D
S11354E01A68FB7910461946FEF7B6FD034683F0A9
S11354F00103DBB2002B02D140F293134EE02A4B9E
S11355001B6893F8283003F04003DBB2002B07D06C
S1135510244B1A683B681B7810461946FEF726FF91
S1135520204B1A683B685B7810461946FEF7DAFF91
S11355301C4B1A683B68D3ED017A1046B0EE670A3B
S1135540FEF730FF174B1B681846FEF70DFC164B91
S11355501B6893F82830C3F30303DBB21A46FB79C4
S113556018461146FFF7F4F938610F4B1B685A6867
S11355703B699A4205D20B4B1B681846FFF7D0FCD7
S113558004E0084B1B681846FFF7D6FC054B1A6865
S1135590FB7910461946FEF7BFFC0023184618375E
S11355A0BD4680BD9807FE1F9407FE1F80B584B0DA
S11355B000AF0346FB71FB791846FEF753FE034622
S11355C0002B01D1032388E0464B1B681846FEF7E5
S11355D07DFE0346FB73FA79FB7B9A4202D140F2CB
S11355E091137AE0FB7B052B0CD13E4B1B681846CC
S11355F0FEF79AFE03461A46FB79934202D140F223
S113560091136AE0FB79012B0DD1364B1B681846C8
S1135610FFF7AAFA034683F00103DBB2002B02D1A1
S113562040F2951359E02F4B1A68FB79104619463E
S1135630FEF74CFD034683F00103DBB2002B01D0DF
S113564000234AE0FB79022B05D0FB79012B02D021
S1135650FB79042B23D1234B1A68FB791046194696
S1135660FEF7AAFCFB79042B18D14FF6FF73BB603D
S113567002E0BB68013BBB601A4B1B68184604215F
S1135680FEF724FD0346002B02D0BB68002BF0D1AB
S1135690BB68002B02D14FF4CD731EE01CE0FB79F4
S11356A0002B05D0FB79032B02D0FB79052B13D1FA
S11356B00C4B1A68FB7910461946FEF7CDFC0346DD
S11356C0002B02D140F2931307E0064B1A68FB79D2
S11356D010461946FEF770FC002318461037BD46E5
S11356E080BD00BF9807FE1F80B58AB000AF034697
S11356F03960FB71FB791846FEF7B4FD0346002BB5
S113570001D1032393E13B68002B01D101238EE1F6
S11357109D4B1B6893F8293003F00803DBB2002B80
S113572007D03B681A783B689B799A4201D20323DD
S11357307DE1954B1B6893F8293003F01003DBB22D
S1135740002B07D03B685A783B689B799A4201D278
S113575003236CE18C4B1B6893F8293023F07F03FF
S1135760DBB2002B07D03B685A793B689B799A429D
S113577001D203235BE1844B1B6893F82A3003F0C6
S11357800103DBB2002B07D03B681A793B689B7995
S11357909A4201D203234AE1FB79042B12D13B68DC
S11357A09B79002B0CD13B685B79002B0AD0764B9C
S11357B01B6893F8293023F07F03DBB2002B01D060
S11357C0052334E1FB79042B09D1704B1B6818467F
S11357D0FFF7CAF90346002B01D0052327E1002374
S11357E03B7400233B773B689B79FA791046194652
S11357F0FFF7AEF803467B61644B1B68184606212D
S1135800FFF788F80346BB6107F11003184602F05E
S1135810E3FB78627B6A002B01D07B6A07E15B4B78
S11358201B681846FEF752FD034687F82330FA79C1
S113583097F823309A4215D0FB79002B05D0FB79D9
S1135840032B02D0FB79052B0CD1504B1A68FB7942
S113585010461946FEF700FC0346002B02D140F225
S11358609313E4E0494B1B681846FFF759FB474B79
S11358701A6807F1080310461946FEF763FFBA7B5E
S11358803B689B799A420DD2404B1B681846396895
S1135890FEF7B4FE3D4B1A68FB7910461946FEF735
S11358A025FD0CE0394B1A68FB7910461946FEF7C2
S11358B01DFD364B1B6818463968FEF79FFE02F043
S11358C0F9FA0246324B1A60FB79042B24D12E4B91
S11358D01B6893F8283023F07F03DBB2002B05D03C
S11358E02A4B1B681846FFF73FFB85E0264B1B68D5
S11358F09B68002B05D0254B1B681846FFF728FB37
S11359007AE0214B1B685B68002B75D01F4B1B682A
S11359101846FFF711FB6FE0FB79022B15D11A4BE8
S11359201B689B68002B05D0184B1B681846FFF7B3
S11359300FFB61E0144B1B685B68002B5CD0134BBE
S11359401B681846FFF7F8FA56E0FB79012B0AD1D9
S11359500D4B1B685B68002B4ED00C4B1B68184624
S1135960FFF7EAFA48E0FB79032B36D1064B1B68B4
S11359705A68074B1B689A420CD2034B1B685B683E
S1135980002B07D028E000BF9407FE1F9807FE1FD6
S11359905808FE1F284B1B689A68284B1B689A42BC
S11359A00FD2254B1B689B68002B0AD0224B1B6827
S11359B05B68002B05D0224B1B681846FFF7BCFA26
S11359C00AE01D4B1B689B68002B15D01C4B1B6801
S11359D01846FFF7BDFA0FE00EE0FB79052B0BD15B
S11359E0154B1B685A68154B1B689A4204D3144B19
S11359F01B681846FFF7A0FA114B1B6818460621CE
S1135A00FEF788FF0346BB6101233B7407F11003D3
S1135A10184602F0E1FA78627B6A002B01D07B6AB7
S1135A2005E042F21070074900F0BAFB0023184663
S1135A302837BD4680BD00BF9407FE1F5808FE1FCF
S1135A409807FE1F40420F0080B582B000AF786017
S1135A5039607B68002B01D1012314E03B68002BE3
S1135A6001D101230FE00A4B1B681846FEF72EFCF8
S1135A7003461A467B681A70054B1B68184639683A
S1135A80FEF760FE002318460837BD4680BD00BF00
S1135A909807FE1F80B582B000AF03463960FB71E2
S1135AA03B68002B01D1012316E03B6800221A60F9
S1135AB0FB791846FEF7F8FB0346002B01D10323BC
S1135AC00AE0074B1A68FB7910461946FEF722FFD5
S1135AD002463B681A60002318460837BD4680BD5D
S1135AE09807FE1F80B582B000AF0346FB71FB79B7
S1135AF01846FEF7B7FB0346002B01D103233FE012
S1135B00FB79022B05D0FB79012B02D0FB79042B06
S1135B100FD11D4B1A68FB7910461946FEF7D6FAC9
S1135B200346002B02D040F2911329E04FF4C873CE
S1135B3026E0FB79002B05D0FB79032B02D0FB79FF
S1135B40052B1CD1104B1A68FB7910461946FEF739
S1135B50BDFA0346002B02D14FF4C87310E00A4B80
S1135B601A68FB7910461946FEF776FA0346002BAD
S1135B7002D140F2931303E04FF4C97300E0002311
S1135B8018460837BD4680BD9807FE1F80B584B00F
S1135B9000AF78600B46FB70FB78002B00F01E8191
S1135BA07B68002B01D101232CE1984B1B6818461C
S1135BB0FEF786FF0346FB73FB7B042B01D1012315
S1135BC020E1924B1A6807F1080310461946FEF7C4
S1135BD0B9FD8F4B1B689B68002B78D0FB7B032B94
S1135BE075D18B4B1B6893F8293003F00803DBB2A3
S1135BF0002B08D03B7A1A46854B1B681B699A42D6
S1135C0001D20523FEE0824B1B6893F8293003F090
S1135C101003DBB2002B08D07B7A1A467C4B1B683E
S1135C201B699A4201D20523ECE0794B1B6893F877
S1135C30293003F02003DBB2002B08D0BB7A1A46CC
S1135C40734B1B681B699A4201D20523DAE0704B3F
S1135C501B6893F8293003F04003DBB2002B08D013
S1135C60FB7A1A466A4B1B681B699A4201D20523C8
S1135C70C8E0674B1B6893F8293023F07F03DBB23D
S1135C80002B08D07B7B1A46614B1B681B699A4228
S1135C9001D20523B6E05E4B1B6893F82A3003F06B
S1135CA00103DBB2002B08D03B7B1A46584B1B6820
S1135CB01B699A4201D20523A4E0BB7B1A46544BCC
S1135CC01B681B699A4201D205239BE07CE0504B80
S1135CD01B68DB68002B77D0FB7B022B74D14C4B09
S1135CE01B6893F8293003F00803DBB2002B08D0BB
S1135CF03B7A1A46464B1B685B699A4201D20523DC
S1135D0080E0434B1B6893F8293003F01003DBB2A7
S1135D10002B08D07B7A1A463D4B1B685B699A427C
S1135D2001D205236EE03A4B1B6893F8293003F047
S1135D302003DBB2002B08D0BB7A1A46344B1B6815
S1135D405B699A4201D205235CE0314B1B6893F8EE
S1135D50293003F04003DBB2002B08D0FB7A1A464B
S1135D602B4B1B685B699A4201D205234AE0284BFE
S1135D701B6893F8293023F07F03DBB2002B08D093
S1135D807B7B1A46224B1B685B699A4201D205232E
S1135D9038E01F4B1B6893F82A3003F00103DBB291
S1135DA0002B08D03B7B1A46194B1B685B699A424F
S1135DB001D2052326E0BB7B1A46154B1B685B69A1
S1135DC09A4201D205231DE00120796802F0DEF930
S1135DD00E4B1B681846FEF793FE12E00B4B1B6834
S1135DE01846FEF7D7FE034683F00103DBB2002B0F
S1135DF002D14FF4CB7305E0044B1B681846FEF741
S1135E0099FE002318461037BD4680BD9807FE1F33
S1135E109407FE1F80B582B000AF244B1B68184660
S1135E20FEF7B8FE0346002B35D0204B1B681846FE
S1135E30FEF74CFA0346FB711D4B1B6893F82830A0
S1135E4003F03003DBB2002B1FD0194B1B6893F80F
S1135E50283003F04003DBB2002B10D0134B1B6837
S1135E601846FEF761FA0346BB71FB79052B05D191
S1135E70BB79032B02D140F2971312E005E0FB79C2
S1135E80052B02D140F297130BE0FB79032B02D1CF
S1135E9040F2971305E0054B1B681846FEF790FE89
S1135EA0002318460837BD4680BD00BF9807FE1F73
S1135EB09407FE1F80B582B000AF0346FB71064B0A
S1135EC01A68FB7910461946FEF798FE0023184617
S1135ED00837BD4680BD00BF9807FE1F80B500AFE0
S1135EE0034B1B681846FEF7A7FE0023184680BD27
S1135EF09807FE1F80B500AF034B1B681846FEF7DA
S1135F00ADFE0023184680BD9807FE1F80B582B001
S1135F1000AF03460A46FB711346BB71064B196872
S1135F20FA79BB79084611461A46FEF7A9FE002302
S1135F3018460837BD4680BD9807FE1F80B500AFE0
S1135F40034B1B681846FEF7D3FE0023184680BD9A
S1135F509807FE1F80B500AF034B1B681846FEF779
S1135F60D9FE0023184680BD9807FE1F90B585B062
S1135F7000AF0346FB71254B1B6893F8293003F0EF
S1135F800103DBB2002B3CD0FB79214AD35CFF2B0D
S1135F9001D1032336E0002002F056FC1D4B1B68A0
S1135FA01846FEF789FF0346FB7200F073F8194B9D
S1135FB01968FB79164AD35C08461946FEF730FF88
S1135FC0154BFB6002E0FB68013BFB60FB79104A68
S1135FD0D45C104B1B681846FEF73EFF03469C42F8
S1135FE002D0FB68002BEED1FB7A002B01D000F02D
S1135FF015F8002002F0DAFBFB68002B01D1142312
S113600000E0002318461437BD4690BD9407FE1FD8
S1136010B0B600009807FE1FFFFF0F0080B582B0E6
S113602000AF194B1B6893F8293003F00103DBB26E
S1136030002B23D0002002F007FC144B1B681846E9
S1136040FEF71AFF124B7B6002E07B68013B7B602A
S11360500E4B1B681846FEF72FFF034683F001031F
